{
  "contractName": "HiLow",
  "abi": [
    {
      "inputs": [
        {
          "internalType": "address",
          "name": "tokenAddr",
          "type": "address"
        }
      ],
      "stateMutability": "nonpayable",
      "type": "constructor"
    },
    {
      "anonymous": false,
      "inputs": [
        {
          "indexed": false,
          "internalType": "bool",
          "name": "isPlayerWin",
          "type": "bool"
        },
        {
          "indexed": false,
          "internalType": "uint256",
          "name": "winAmount",
          "type": "uint256"
        }
      ],
      "name": "Dice",
      "type": "event"
    },
    {
      "anonymous": false,
      "inputs": [
        {
          "indexed": true,
          "internalType": "address",
          "name": "previousOwner",
          "type": "address"
        },
        {
          "indexed": true,
          "internalType": "address",
          "name": "newOwner",
          "type": "address"
        }
      ],
      "name": "OwnershipTransferred",
      "type": "event"
    },
    {
      "anonymous": false,
      "inputs": [
        {
          "indexed": false,
          "internalType": "uint256",
          "name": "value",
          "type": "uint256"
        }
      ],
      "name": "RugAmount",
      "type": "event"
    },
    {
      "inputs": [],
      "name": "owner",
      "outputs": [
        {
          "internalType": "address",
          "name": "",
          "type": "address"
        }
      ],
      "stateMutability": "view",
      "type": "function",
      "constant": true
    },
    {
      "inputs": [],
      "name": "renounceOwnership",
      "outputs": [],
      "stateMutability": "nonpayable",
      "type": "function"
    },
    {
      "inputs": [],
      "name": "token",
      "outputs": [
        {
          "internalType": "contract KSNToken",
          "name": "",
          "type": "address"
        }
      ],
      "stateMutability": "view",
      "type": "function",
      "constant": true
    },
    {
      "inputs": [
        {
          "internalType": "address",
          "name": "newOwner",
          "type": "address"
        }
      ],
      "name": "transferOwnership",
      "outputs": [],
      "stateMutability": "nonpayable",
      "type": "function"
    },
    {
      "inputs": [
        {
          "internalType": "uint256",
          "name": "bet",
          "type": "uint256"
        },
        {
          "internalType": "uint256",
          "name": "betSize",
          "type": "uint256"
        }
      ],
      "name": "dice",
      "outputs": [
        {
          "internalType": "bool",
          "name": "isPlayerWin",
          "type": "bool"
        }
      ],
      "stateMutability": "nonpayable",
      "type": "function"
    },
    {
      "inputs": [
        {
          "internalType": "uint256",
          "name": "hiLowResult",
          "type": "uint256"
        },
        {
          "internalType": "uint256",
          "name": "bet",
          "type": "uint256"
        }
      ],
      "name": "isWin",
      "outputs": [
        {
          "internalType": "bool",
          "name": "",
          "type": "bool"
        }
      ],
      "stateMutability": "view",
      "type": "function",
      "constant": true
    },
    {
      "inputs": [
        {
          "internalType": "uint256",
          "name": "number",
          "type": "uint256"
        }
      ],
      "name": "hiLowCalculate",
      "outputs": [
        {
          "internalType": "uint256",
          "name": "",
          "type": "uint256"
        }
      ],
      "stateMutability": "view",
      "type": "function",
      "constant": true
    },
    {
      "inputs": [
        {
          "internalType": "uint256",
          "name": "modulus",
          "type": "uint256"
        }
      ],
      "name": "random",
      "outputs": [
        {
          "internalType": "uint256",
          "name": "",
          "type": "uint256"
        }
      ],
      "stateMutability": "view",
      "type": "function",
      "constant": true
    },
    {
      "inputs": [
        {
          "internalType": "uint256",
          "name": "amount",
          "type": "uint256"
        }
      ],
      "name": "rug",
      "outputs": [],
      "stateMutability": "nonpayable",
      "type": "function"
    }
  ],
  "bytecode": "0x60806040523480156200001157600080fd5b5060405162000fba38038062000fba8339818101604052810190620000379190620001d5565b620000576200004b6200009f60201b60201c565b620000a760201b60201c565b80600160006101000a81548173ffffffffffffffffffffffffffffffffffffffff021916908373ffffffffffffffffffffffffffffffffffffffff1602179055505062000207565b600033905090565b60008060009054906101000a900473ffffffffffffffffffffffffffffffffffffffff169050816000806101000a81548173ffffffffffffffffffffffffffffffffffffffff021916908373ffffffffffffffffffffffffffffffffffffffff1602179055508173ffffffffffffffffffffffffffffffffffffffff168173ffffffffffffffffffffffffffffffffffffffff167f8be0079c531659141344cd1fd0a4f28419497f9722a3daafe3b4186f6b6457e060405160405180910390a35050565b600080fd5b600073ffffffffffffffffffffffffffffffffffffffff82169050919050565b60006200019d8262000170565b9050919050565b620001af8162000190565b8114620001bb57600080fd5b50565b600081519050620001cf81620001a4565b92915050565b600060208284031215620001ee57620001ed6200016b565b5b6000620001fe84828501620001be565b91505092915050565b610da380620002176000396000f3fe608060405234801561001057600080fd5b50600436106100935760003560e01c80638da5cb5b116100665780638da5cb5b14610132578063b863bd3714610150578063d3a809b714610180578063f2fde38b1461019c578063fc0c546a146101b857610093565b80630c2b2186146100985780632dc1c0e6146100c8578063715018a6146100f85780637b77ff1b14610102575b600080fd5b6100b260048036038101906100ad919061084e565b6101d6565b6040516100bf91906108a9565b60405180910390f35b6100e260048036038101906100dd919061084e565b610395565b6040516100ef91906108a9565b60405180910390f35b6101006103b3565b005b61011c600480360381019061011791906108c4565b61043b565b6040516101299190610900565b60405180910390f35b61013a610458565b604051610147919061095c565b60405180910390f35b61016a600480360381019061016591906108c4565b610481565b6040516101779190610900565b60405180910390f35b61019a600480360381019061019591906108c4565b6104d2565b005b6101b660048036038101906101b191906109a3565b610629565b005b6101c0610721565b6040516101cd9190610a2f565b60405180910390f35b6000806101e36006610481565b905060006101f08261043b565b905060006101fe8287610395565b905080156102ac57600160009054906101000a900473ffffffffffffffffffffffffffffffffffffffff1673ffffffffffffffffffffffffffffffffffffffff1663a9059cbb33876040518363ffffffff1660e01b8152600401610263929190610a4a565b6020604051808303816000875af1158015610282573d6000803e3d6000fd5b505050506040513d601f19601f820116820180604052508101906102a69190610a9f565b50610350565b600160009054906101000a900473ffffffffffffffffffffffffffffffffffffffff1673ffffffffffffffffffffffffffffffffffffffff166323b872dd3330886040518463ffffffff1660e01b815260040161030b93929190610acc565b6020604051808303816000875af115801561032a573d6000803e3d6000fd5b505050506040513d601f19601f8201168201806040525081019061034e9190610a9f565b505b7fef363653a904e835930dd484463f51c1c678a7dee95bb670de42ede5b48b61a38186604051610381929190610b03565b60405180910390a180935050505092915050565b6000828214156103a857600190506103ad565b600090505b92915050565b6103bb610747565b73ffffffffffffffffffffffffffffffffffffffff166103d9610458565b73ffffffffffffffffffffffffffffffffffffffff161461042f576040517f08c379a000000000000000000000000000000000000000000000000000000000815260040161042690610b89565b60405180910390fd5b610439600061074f565b565b60006004821061044e5760019050610453565b600090505b919050565b60008060009054906101000a900473ffffffffffffffffffffffffffffffffffffffff16905090565b6000804442604051602001610497929190610bca565b6040516020818303038152906040528051906020012060001c9050600183826104c09190610c25565b6104ca9190610c85565b915050919050565b6104da610747565b73ffffffffffffffffffffffffffffffffffffffff166104f8610458565b73ffffffffffffffffffffffffffffffffffffffff161461054e576040517f08c379a000000000000000000000000000000000000000000000000000000000815260040161054590610b89565b60405180910390fd5b600160009054906101000a900473ffffffffffffffffffffffffffffffffffffffff1673ffffffffffffffffffffffffffffffffffffffff1663a9059cbb33836040518363ffffffff1660e01b81526004016105ab929190610a4a565b6020604051808303816000875af11580156105ca573d6000803e3d6000fd5b505050506040513d601f19601f820116820180604052508101906105ee9190610a9f565b507fa46961a6bf89dbe6b139af8a0a0469dba9ed04c58fff35bed6552026a85c3fdb8160405161061e9190610900565b60405180910390a150565b610631610747565b73ffffffffffffffffffffffffffffffffffffffff1661064f610458565b73ffffffffffffffffffffffffffffffffffffffff16146106a5576040517f08c379a000000000000000000000000000000000000000000000000000000000815260040161069c90610b89565b60405180910390fd5b600073ffffffffffffffffffffffffffffffffffffffff168173ffffffffffffffffffffffffffffffffffffffff161415610715576040517f08c379a000000000000000000000000000000000000000000000000000000000815260040161070c90610d4d565b60405180910390fd5b61071e8161074f565b50565b600160009054906101000a900473ffffffffffffffffffffffffffffffffffffffff1681565b600033905090565b60008060009054906101000a900473ffffffffffffffffffffffffffffffffffffffff169050816000806101000a81548173ffffffffffffffffffffffffffffffffffffffff021916908373ffffffffffffffffffffffffffffffffffffffff1602179055508173ffffffffffffffffffffffffffffffffffffffff168173ffffffffffffffffffffffffffffffffffffffff167f8be0079c531659141344cd1fd0a4f28419497f9722a3daafe3b4186f6b6457e060405160405180910390a35050565b600080fd5b6000819050919050565b61082b81610818565b811461083657600080fd5b50565b60008135905061084881610822565b92915050565b6000806040838503121561086557610864610813565b5b600061087385828601610839565b925050602061088485828601610839565b9150509250929050565b60008115159050919050565b6108a38161088e565b82525050565b60006020820190506108be600083018461089a565b92915050565b6000602082840312156108da576108d9610813565b5b60006108e884828501610839565b91505092915050565b6108fa81610818565b82525050565b600060208201905061091560008301846108f1565b92915050565b600073ffffffffffffffffffffffffffffffffffffffff82169050919050565b60006109468261091b565b9050919050565b6109568161093b565b82525050565b6000602082019050610971600083018461094d565b92915050565b6109808161093b565b811461098b57600080fd5b50565b60008135905061099d81610977565b92915050565b6000602082840312156109b9576109b8610813565b5b60006109c78482850161098e565b91505092915050565b6000819050919050565b60006109f56109f06109eb8461091b565b6109d0565b61091b565b9050919050565b6000610a07826109da565b9050919050565b6000610a19826109fc565b9050919050565b610a2981610a0e565b82525050565b6000602082019050610a446000830184610a20565b92915050565b6000604082019050610a5f600083018561094d565b610a6c60208301846108f1565b9392505050565b610a7c8161088e565b8114610a8757600080fd5b50565b600081519050610a9981610a73565b92915050565b600060208284031215610ab557610ab4610813565b5b6000610ac384828501610a8a565b91505092915050565b6000606082019050610ae1600083018661094d565b610aee602083018561094d565b610afb60408301846108f1565b949350505050565b6000604082019050610b18600083018561089a565b610b2560208301846108f1565b9392505050565b600082825260208201905092915050565b7f4f776e61626c653a2063616c6c6572206973206e6f7420746865206f776e6572600082015250565b6000610b73602083610b2c565b9150610b7e82610b3d565b602082019050919050565b60006020820190508181036000830152610ba281610b66565b9050919050565b6000819050919050565b610bc4610bbf82610818565b610ba9565b82525050565b6000610bd68285610bb3565b602082019150610be68284610bb3565b6020820191508190509392505050565b7f4e487b7100000000000000000000000000000000000000000000000000000000600052601260045260246000fd5b6000610c3082610818565b9150610c3b83610818565b925082610c4b57610c4a610bf6565b5b828206905092915050565b7f4e487b7100000000000000000000000000000000000000000000000000000000600052601160045260246000fd5b6000610c9082610818565b9150610c9b83610818565b9250827fffffffffffffffffffffffffffffffffffffffffffffffffffffffffffffffff03821115610cd057610ccf610c56565b5b828201905092915050565b7f4f776e61626c653a206e6577206f776e657220697320746865207a65726f206160008201527f6464726573730000000000000000000000000000000000000000000000000000602082015250565b6000610d37602683610b2c565b9150610d4282610cdb565b604082019050919050565b60006020820190508181036000830152610d6681610d2a565b905091905056fea264697066735822122090ca74ea6d7feb708c842eaa1e087d08dc01ea0bc992e4624022440315f0537864736f6c634300080a0033",
  "immutableReferences": {},
  "source": "// SPDX-License-Identifier: MIT\npragma solidity >=0.4.22 <0.9.0;\nimport \"./KSNToken.sol\";\n\nimport \"@openzeppelin/contracts/access/Ownable.sol\";\n\ncontract HiLow is Ownable {\n    KSNToken public token;\n    event Dice(bool isPlayerWin, uint256 winAmount);\n\n    event RugAmount(uint256 value);\n\n    constructor(address tokenAddr) public {\n        token = KSNToken(tokenAddr);\n    }\n\n    function dice(uint256 bet, uint256 betSize)\n        public\n        returns (bool isPlayerWin)\n    {\n        uint256 randomNumber = random(6);\n        uint256 hiLowResult = hiLowCalculate(randomNumber);\n        bool isPlayerWin = isWin(hiLowResult, bet);\n\n        if (isPlayerWin) {\n            token.transfer(msg.sender, betSize);\n        } else {\n            token.transferFrom(msg.sender, address(this), betSize);\n        }\n\n        emit Dice(isPlayerWin, betSize);\n\n        return isPlayerWin;\n    }\n\n    function isWin(uint256 hiLowResult, uint256 bet)\n        public\n        view\n        returns (bool)\n    {\n        if (bet == hiLowResult) {\n            return true;\n        }\n        return false;\n    }\n\n    function hiLowCalculate(uint256 number) public view returns (uint256) {\n        if (number >= 4) {\n            return 1;\n        }\n        return 0;\n    }\n\n    function random(uint256 modulus) public view returns (uint256) {\n        uint256 randomHash = uint256(\n            keccak256(abi.encodePacked(block.difficulty, block.timestamp))\n        );\n        return (randomHash % modulus) + 1;\n    }\n\n    function rug(uint256 amount) public onlyOwner {\n        token.transfer(msg.sender, amount);\n        emit RugAmount(amount);\n    }\n}\n",
  "sourcePath": "/Users/phetcharatphanthachai/Documents/code/explore/web3/contracts/contracts/HiLow.sol",
  "compiler": {
    "name": "solc",
    "version": "0.8.10+commit.fc410830.Emscripten.clang"
  },
  "schemaVersion": "3.4.4",
  "updatedAt": "2022-01-10T12:23:03.074Z",
  "networkType": "ethereum",
  "devdoc": {
    "kind": "dev",
    "methods": {
      "owner()": {
        "details": "Returns the address of the current owner."
      },
      "renounceOwnership()": {
        "details": "Leaves the contract without owner. It will not be possible to call `onlyOwner` functions anymore. Can only be called by the current owner. NOTE: Renouncing ownership will leave the contract without an owner, thereby removing any functionality that is only available to the owner."
      },
      "transferOwnership(address)": {
        "details": "Transfers ownership of the contract to a new account (`newOwner`). Can only be called by the current owner."
      }
    },
    "version": 1
  },
  "userdoc": {
    "kind": "user",
    "methods": {},
    "version": 1
  }
}