{
  "contractName": "HiLow",
  "abi": [
    {
      "inputs": [
        {
          "internalType": "address",
          "name": "tokenAddr",
          "type": "address"
        }
      ],
      "stateMutability": "nonpayable",
      "type": "constructor"
    },
    {
      "inputs": [],
      "name": "token",
      "outputs": [
        {
          "internalType": "contract KSNToken",
          "name": "",
          "type": "address"
        }
      ],
      "stateMutability": "view",
      "type": "function"
    },
    {
      "inputs": [
        {
          "internalType": "uint8",
          "name": "bet",
          "type": "uint8"
        },
        {
          "internalType": "uint256",
          "name": "betSize",
          "type": "uint256"
        }
      ],
      "name": "dice",
      "outputs": [
        {
          "internalType": "bool",
          "name": "isPlayerWin",
          "type": "bool"
        }
      ],
      "stateMutability": "nonpayable",
      "type": "function"
    }
  ],
  "bytecode": "0x608060405234801561001057600080fd5b506040516106fa3803806106fa833981810160405281019061003291906100db565b806000806101000a81548173ffffffffffffffffffffffffffffffffffffffff021916908373ffffffffffffffffffffffffffffffffffffffff16021790555050610108565b600080fd5b600073ffffffffffffffffffffffffffffffffffffffff82169050919050565b60006100a88261007d565b9050919050565b6100b88161009d565b81146100c357600080fd5b50565b6000815190506100d5816100af565b92915050565b6000602082840312156100f1576100f0610078565b5b60006100ff848285016100c6565b91505092915050565b6105e3806101176000396000f3fe608060405234801561001057600080fd5b50600436106100365760003560e01c80633968f2af1461003b578063fc0c546a1461006b575b600080fd5b61005560048036038101906100509190610307565b610089565b6040516100629190610362565b60405180910390f35b61007361022a565b60405161008091906103fc565b60405180910390f35b600080610096600661024e565b905060008060038311156100ad57600191506100b2565b600091505b8160ff168660ff1614156100cc57849050600193506100d5565b60009050600093505b831561017f5760008054906101000a900473ffffffffffffffffffffffffffffffffffffffff1673ffffffffffffffffffffffffffffffffffffffff1663a9059cbb33836040518363ffffffff1660e01b8152600401610136929190610447565b6020604051808303816000875af1158015610155573d6000803e3d6000fd5b505050506040513d601f19601f82011682018060405250810190610179919061049c565b50610221565b60008054906101000a900473ffffffffffffffffffffffffffffffffffffffff1673ffffffffffffffffffffffffffffffffffffffff166323b872dd3330886040518463ffffffff1660e01b81526004016101dc939291906104c9565b6020604051808303816000875af11580156101fb573d6000803e3d6000fd5b505050506040513d601f19601f8201168201806040525081019061021f919061049c565b505b50505092915050565b60008054906101000a900473ffffffffffffffffffffffffffffffffffffffff1681565b6000804442604051602001610264929190610521565b6040516020818303038152906040528051906020012060001c9050828161028b919061057c565b915050919050565b600080fd5b600060ff82169050919050565b6102ae81610298565b81146102b957600080fd5b50565b6000813590506102cb816102a5565b92915050565b6000819050919050565b6102e4816102d1565b81146102ef57600080fd5b50565b600081359050610301816102db565b92915050565b6000806040838503121561031e5761031d610293565b5b600061032c858286016102bc565b925050602061033d858286016102f2565b9150509250929050565b60008115159050919050565b61035c81610347565b82525050565b60006020820190506103776000830184610353565b92915050565b600073ffffffffffffffffffffffffffffffffffffffff82169050919050565b6000819050919050565b60006103c26103bd6103b88461037d565b61039d565b61037d565b9050919050565b60006103d4826103a7565b9050919050565b60006103e6826103c9565b9050919050565b6103f6816103db565b82525050565b600060208201905061041160008301846103ed565b92915050565b60006104228261037d565b9050919050565b61043281610417565b82525050565b610441816102d1565b82525050565b600060408201905061045c6000830185610429565b6104696020830184610438565b9392505050565b61047981610347565b811461048457600080fd5b50565b60008151905061049681610470565b92915050565b6000602082840312156104b2576104b1610293565b5b60006104c084828501610487565b91505092915050565b60006060820190506104de6000830186610429565b6104eb6020830185610429565b6104f86040830184610438565b949350505050565b6000819050919050565b61051b610516826102d1565b610500565b82525050565b600061052d828561050a565b60208201915061053d828461050a565b6020820191508190509392505050565b7f4e487b7100000000000000000000000000000000000000000000000000000000600052601260045260246000fd5b6000610587826102d1565b9150610592836102d1565b9250826105a2576105a161054d565b5b82820690509291505056fea2646970667358221220bd73881d6feb7e2753d015dec02b7fac2a45b1907763d8ba972749ff9fb8538064736f6c634300080a0033",
  "immutableReferences": {},
  "source": "// SPDX-License-Identifier: MIT\npragma solidity >=0.4.22 <0.9.0;\nimport \"./KSNToken.sol\";\ncontract HiLow {\n  KSNToken public token;\n  constructor(address tokenAddr) public {\n    token = KSNToken(tokenAddr);\n  }\n\n  function dice(uint8 bet, uint256 betSize) public returns (bool isPlayerWin) {\n    uint256 randomResult = random(6);\n    uint8 normalize;\n    uint256 winAmount;\n    if (randomResult > 3) {\n      normalize = 1; // Hi\n    } else {\n      normalize = 0; // Low\n    }\n    if (bet == normalize) {\n      winAmount = betSize;\n      isPlayerWin = true;\n    } else {\n      winAmount = 0;\n      isPlayerWin = false;\n    }\n\n    if (isPlayerWin) {\n      token.transfer(msg.sender, winAmount);\n    } else {\n      token.transferFrom(msg.sender, address(this), betSize);\n    }\n    return isPlayerWin;\n  }\n\n  function random(uint256 modulus) private view returns (uint) { // 0 - (mod -1)\n    uint randomHash = uint(keccak256(abi.encodePacked(block.difficulty, block.timestamp)));\n    return randomHash % modulus;\n  } \n\n}\n",
  "sourcePath": "/Users/spksoft/Projects/kasuno-by-poon/contracts/contracts/HiLow.sol",
  "compiler": {
    "name": "solc",
    "version": "0.8.10+commit.fc410830.Emscripten.clang"
  },
  "schemaVersion": "3.4.4",
  "updatedAt": "2021-12-24T08:23:47.370Z",
  "devdoc": {
    "kind": "dev",
    "methods": {},
    "version": 1
  },
  "userdoc": {
    "kind": "user",
    "methods": {},
    "version": 1
  }
}