{
  "contractName": "HiLowV3",
  "abi": [
    {
      "inputs": [
        {
          "internalType": "address",
          "name": "tokenAddr",
          "type": "address"
        }
      ],
      "stateMutability": "nonpayable",
      "type": "constructor"
    },
    {
      "anonymous": false,
      "inputs": [
        {
          "indexed": false,
          "internalType": "bool",
          "name": "isPlayerWin",
          "type": "bool"
        },
        {
          "indexed": false,
          "internalType": "uint256",
          "name": "winAmount",
          "type": "uint256"
        }
      ],
      "name": "Dice",
      "type": "event"
    },
    {
      "inputs": [],
      "name": "token",
      "outputs": [
        {
          "internalType": "contract KSNToken",
          "name": "",
          "type": "address"
        }
      ],
      "stateMutability": "view",
      "type": "function",
      "constant": true
    },
    {
      "inputs": [
        {
          "internalType": "uint8",
          "name": "bet",
          "type": "uint8"
        },
        {
          "internalType": "uint256",
          "name": "betSize",
          "type": "uint256"
        }
      ],
      "name": "dice",
      "outputs": [
        {
          "internalType": "bool",
          "name": "isPlayerWin",
          "type": "bool"
        }
      ],
      "stateMutability": "nonpayable",
      "type": "function"
    }
  ],
  "bytecode": "0x608060405234801561001057600080fd5b5060405161075c38038061075c833981810160405281019061003291906100db565b806000806101000a81548173ffffffffffffffffffffffffffffffffffffffff021916908373ffffffffffffffffffffffffffffffffffffffff16021790555050610108565b600080fd5b600073ffffffffffffffffffffffffffffffffffffffff82169050919050565b60006100a88261007d565b9050919050565b6100b88161009d565b81146100c357600080fd5b50565b6000815190506100d5816100af565b92915050565b6000602082840312156100f1576100f0610078565b5b60006100ff848285016100c6565b91505092915050565b610645806101176000396000f3fe608060405234801561001057600080fd5b50600436106100365760003560e01c80633968f2af1461003b578063fc0c546a1461006b575b600080fd5b61005560048036038101906100509190610340565b610089565b604051610062919061039b565b60405180910390f35b610073610263565b6040516100809190610435565b60405180910390f35b6000806100966006610287565b905060008060038311156100ad57600191506100b2565b600091505b8160ff168660ff1614156100cc57849050600193506100d5565b60009050600093505b831561017f5760008054906101000a900473ffffffffffffffffffffffffffffffffffffffff1673ffffffffffffffffffffffffffffffffffffffff1663a9059cbb33836040518363ffffffff1660e01b8152600401610136929190610480565b6020604051808303816000875af1158015610155573d6000803e3d6000fd5b505050506040513d601f19601f8201168201806040525081019061017991906104d5565b50610221565b60008054906101000a900473ffffffffffffffffffffffffffffffffffffffff1673ffffffffffffffffffffffffffffffffffffffff166323b872dd3330886040518463ffffffff1660e01b81526004016101dc93929190610502565b6020604051808303816000875af11580156101fb573d6000803e3d6000fd5b505050506040513d601f19601f8201168201806040525081019061021f91906104d5565b505b7fef363653a904e835930dd484463f51c1c678a7dee95bb670de42ede5b48b61a38482604051610252929190610539565b60405180910390a150505092915050565b60008054906101000a900473ffffffffffffffffffffffffffffffffffffffff1681565b600080444260405160200161029d929190610583565b6040516020818303038152906040528051906020012060001c905082816102c491906105de565b915050919050565b600080fd5b600060ff82169050919050565b6102e7816102d1565b81146102f257600080fd5b50565b600081359050610304816102de565b92915050565b6000819050919050565b61031d8161030a565b811461032857600080fd5b50565b60008135905061033a81610314565b92915050565b60008060408385031215610357576103566102cc565b5b6000610365858286016102f5565b92505060206103768582860161032b565b9150509250929050565b60008115159050919050565b61039581610380565b82525050565b60006020820190506103b0600083018461038c565b92915050565b600073ffffffffffffffffffffffffffffffffffffffff82169050919050565b6000819050919050565b60006103fb6103f66103f1846103b6565b6103d6565b6103b6565b9050919050565b600061040d826103e0565b9050919050565b600061041f82610402565b9050919050565b61042f81610414565b82525050565b600060208201905061044a6000830184610426565b92915050565b600061045b826103b6565b9050919050565b61046b81610450565b82525050565b61047a8161030a565b82525050565b60006040820190506104956000830185610462565b6104a26020830184610471565b9392505050565b6104b281610380565b81146104bd57600080fd5b50565b6000815190506104cf816104a9565b92915050565b6000602082840312156104eb576104ea6102cc565b5b60006104f9848285016104c0565b91505092915050565b60006060820190506105176000830186610462565b6105246020830185610462565b6105316040830184610471565b949350505050565b600060408201905061054e600083018561038c565b61055b6020830184610471565b9392505050565b6000819050919050565b61057d6105788261030a565b610562565b82525050565b600061058f828561056c565b60208201915061059f828461056c565b6020820191508190509392505050565b7f4e487b7100000000000000000000000000000000000000000000000000000000600052601260045260246000fd5b60006105e98261030a565b91506105f48361030a565b925082610604576106036105af565b5b82820690509291505056fea2646970667358221220fd579cc29b088c25b5b111eb564d8a1068237ddfb1148cdb7013c2c6d592c62d64736f6c634300080a0033",
  "immutableReferences": {},
  "source": "// SPDX-License-Identifier: MIT\npragma solidity >=0.4.22 <0.9.0;\nimport \"./KSNToken.sol\";\ncontract HiLowV3 {\n  KSNToken public token;\n  event Dice(bool isPlayerWin, uint winAmount);\n  constructor(address tokenAddr) public {\n    token = KSNToken(tokenAddr);\n  }\n\n  function dice(uint8 bet, uint256 betSize) public returns (bool isPlayerWin) {\n    uint256 randomResult = random(6);\n    uint8 normalize;\n    uint256 winAmount;\n    if (randomResult > 3) {\n      normalize = 1; // Hi\n    } else {\n      normalize = 0; // Low\n    }\n    if (bet == normalize) {\n      winAmount = betSize;\n      isPlayerWin = true;\n    } else {\n      winAmount = 0;\n      isPlayerWin = false;\n    }\n\n    if (isPlayerWin) {\n      token.transfer(msg.sender, winAmount);\n    } else {\n      token.transferFrom(msg.sender, address(this), betSize);\n    }\n    emit Dice(isPlayerWin, winAmount);\n    return isPlayerWin;\n  }\n\n  function random(uint256 modulus) private view returns (uint) { // 0 - (mod -1)\n    uint randomHash = uint(keccak256(abi.encodePacked(block.difficulty, block.timestamp)));\n    return randomHash % modulus;\n  } \n\n}\n",
  "sourcePath": "/Users/spksoft/Projects/kasuno-by-poon/contracts/contracts/HiLowV3.sol",
  "compiler": {
    "name": "solc",
    "version": "0.8.10+commit.fc410830.Emscripten.clang"
  },
  "schemaVersion": "3.4.4",
  "updatedAt": "2021-12-24T08:46:25.770Z",
  "networkType": "ethereum",
  "devdoc": {
    "kind": "dev",
    "methods": {},
    "version": 1
  },
  "userdoc": {
    "kind": "user",
    "methods": {},
    "version": 1
  }
}