{
  "contractName": "TestTransfer",
  "abi": [
    {
      "inputs": [
        {
          "internalType": "address",
          "name": "tokenAddr",
          "type": "address"
        }
      ],
      "stateMutability": "nonpayable",
      "type": "constructor"
    },
    {
      "inputs": [],
      "name": "token",
      "outputs": [
        {
          "internalType": "contract KSNToken",
          "name": "",
          "type": "address"
        }
      ],
      "stateMutability": "view",
      "type": "function",
      "constant": true
    },
    {
      "inputs": [
        {
          "internalType": "uint256",
          "name": "amount",
          "type": "uint256"
        }
      ],
      "name": "transferFromContract",
      "outputs": [],
      "stateMutability": "nonpayable",
      "type": "function"
    },
    {
      "inputs": [
        {
          "internalType": "uint256",
          "name": "amount",
          "type": "uint256"
        }
      ],
      "name": "transferToContract",
      "outputs": [],
      "stateMutability": "nonpayable",
      "type": "function"
    }
  ],
  "bytecode": "0x608060405234801561001057600080fd5b5060405161054a38038061054a833981810160405281019061003291906100db565b806000806101000a81548173ffffffffffffffffffffffffffffffffffffffff021916908373ffffffffffffffffffffffffffffffffffffffff16021790555050610108565b600080fd5b600073ffffffffffffffffffffffffffffffffffffffff82169050919050565b60006100a88261007d565b9050919050565b6100b88161009d565b81146100c357600080fd5b50565b6000815190506100d5816100af565b92915050565b6000602082840312156100f1576100f0610078565b5b60006100ff848285016100c6565b91505092915050565b610433806101176000396000f3fe608060405234801561001057600080fd5b50600436106100415760003560e01c8063d555d47314610046578063da8ee78614610062578063fc0c546a1461007e575b600080fd5b610060600480360381019061005b9190610241565b61009c565b005b61007c60048036038101906100779190610241565b610140565b005b6100866101e2565b60405161009391906102ed565b60405180910390f35b60008054906101000a900473ffffffffffffffffffffffffffffffffffffffff1673ffffffffffffffffffffffffffffffffffffffff166323b872dd3330846040518463ffffffff1660e01b81526004016100f993929190610338565b6020604051808303816000875af1158015610118573d6000803e3d6000fd5b505050506040513d601f19601f8201168201806040525081019061013c91906103a7565b5050565b60008054906101000a900473ffffffffffffffffffffffffffffffffffffffff1673ffffffffffffffffffffffffffffffffffffffff1663a9059cbb30836040518363ffffffff1660e01b815260040161019b9291906103d4565b6020604051808303816000875af11580156101ba573d6000803e3d6000fd5b505050506040513d601f19601f820116820180604052508101906101de91906103a7565b5050565b60008054906101000a900473ffffffffffffffffffffffffffffffffffffffff1681565b600080fd5b6000819050919050565b61021e8161020b565b811461022957600080fd5b50565b60008135905061023b81610215565b92915050565b60006020828403121561025757610256610206565b5b60006102658482850161022c565b91505092915050565b600073ffffffffffffffffffffffffffffffffffffffff82169050919050565b6000819050919050565b60006102b36102ae6102a98461026e565b61028e565b61026e565b9050919050565b60006102c582610298565b9050919050565b60006102d7826102ba565b9050919050565b6102e7816102cc565b82525050565b600060208201905061030260008301846102de565b92915050565b60006103138261026e565b9050919050565b61032381610308565b82525050565b6103328161020b565b82525050565b600060608201905061034d600083018661031a565b61035a602083018561031a565b6103676040830184610329565b949350505050565b60008115159050919050565b6103848161036f565b811461038f57600080fd5b50565b6000815190506103a18161037b565b92915050565b6000602082840312156103bd576103bc610206565b5b60006103cb84828501610392565b91505092915050565b60006040820190506103e9600083018561031a565b6103f66020830184610329565b939250505056fea264697066735822122023a1a586d15131e82946a04905152fd1031b325d679cc2d8a83126f5528d684164736f6c634300080a0033",
  "immutableReferences": {},
  "source": "// SPDX-License-Identifier: MIT\npragma solidity >=0.4.22 <0.9.0;\nimport \"./KSNToken.sol\";\ncontract TestTransfer {\n  KSNToken public token;\n  constructor(address tokenAddr) public {\n    token = KSNToken(tokenAddr);\n  }\n\n  function transferFromContract(uint amount) public {\n    token.transfer(address(this), amount);\n  }\n\n  function transferToContract(uint amount) public {\n    token.transferFrom(msg.sender, address(this), amount);\n  }\n\n  // function dice(uint8 bet, uint256 betSize) public returns (bool isPlayerWin, uint256 winAmount) {\n  //   uint256 randomResult = random(6);\n  //   uint8 normalize;\n  //   if (randomResult > 3) {\n  //     normalize = 1; // Hi\n  //   } else {\n  //     normalize = 0; // Low\n  //   }\n  //   if (bet == normalize) {\n  //     winAmount = betSize;\n  //     isPlayerWin = true;\n  //   } else {\n  //     winAmount = 0;\n  //     isPlayerWin = false;\n  //   }\n\n  //   if (isPlayerWin) {\n  //     token.transfer(msg.sender, winAmount);\n  //   } else {\n  //     token.transferFrom(msg.sender, address(this), betSize);\n  //   }\n  //   return (isPlayerWin, winAmount);\n  // }\n\n  // function random(uint256 modulus) private view returns (uint) { // 0 - (mod -1)\n  //   uint randomHash = uint(keccak256(abi.encodePacked(block.difficulty, block.timestamp)));\n  //   return randomHash % modulus;\n  // } \n\n}\n",
  "sourcePath": "/Users/spksoft/Projects/kasuno-by-poon/contracts/contracts/TestTransfer.sol",
  "compiler": {
    "name": "solc",
    "version": "0.8.10+commit.fc410830.Emscripten.clang"
  },
  "schemaVersion": "3.4.4",
  "updatedAt": "2021-12-24T07:43:44.134Z",
  "networkType": "ethereum",
  "devdoc": {
    "kind": "dev",
    "methods": {},
    "version": 1
  },
  "userdoc": {
    "kind": "user",
    "methods": {},
    "version": 1
  }
}